{
  "contractName": "BiometricVoting",
  "abi": [
    {
      "inputs": [],
      "stateMutability": "nonpayable",
      "type": "constructor"
    },
    {
      "anonymous": false,
      "inputs": [
        {
          "indexed": false,
          "internalType": "uint256",
          "name": "voterId",
          "type": "uint256"
        }
      ],
      "name": "VoteCast",
      "type": "event"
    },
    {
      "inputs": [],
      "name": "admin",
      "outputs": [
        {
          "internalType": "address",
          "name": "",
          "type": "address"
        }
      ],
      "stateMutability": "view",
      "type": "function",
      "constant": true
    },
    {
      "inputs": [
        {
          "internalType": "uint256",
          "name": "",
          "type": "uint256"
        }
      ],
      "name": "hasVoted",
      "outputs": [
        {
          "internalType": "bool",
          "name": "",
          "type": "bool"
        }
      ],
      "stateMutability": "view",
      "type": "function",
      "constant": true
    },
    {
      "inputs": [
        {
          "internalType": "uint256",
          "name": "voterId",
          "type": "uint256"
        }
      ],
      "name": "vote",
      "outputs": [],
      "stateMutability": "nonpayable",
      "type": "function"
    },
    {
      "inputs": [
        {
          "internalType": "uint256",
          "name": "voterId",
          "type": "uint256"
        }
      ],
      "name": "checkVoted",
      "outputs": [
        {
          "internalType": "bool",
          "name": "",
          "type": "bool"
        }
      ],
      "stateMutability": "view",
      "type": "function",
      "constant": true
    }
  ],
  "bytecode": "0x608060405234801561000f575f80fd5b50335f806101000a81548173ffffffffffffffffffffffffffffffffffffffff021916908373ffffffffffffffffffffffffffffffffffffffff1602179055506103d18061005c5f395ff3fe608060405234801561000f575f80fd5b506004361061004a575f3560e01c80630121b93f1461004e578063470d8c2c1461006a578063ecca031f1461009a578063f851a440146100ca575b5f80fd5b61006860048036038101906100639190610245565b6100e8565b005b610084600480360381019061007f9190610245565b6101a8565b604051610091919061028a565b60405180910390f35b6100b460048036038101906100af9190610245565b6101ce565b6040516100c1919061028a565b60405180910390f35b6100d26101eb565b6040516100df91906102e2565b60405180910390f35b60015f8281526020019081526020015f205f9054906101000a900460ff1615610146576040517f08c379a000000000000000000000000000000000000000000000000000000000815260040161013d90610355565b60405180910390fd5b6001805f8381526020019081526020015f205f6101000a81548160ff0219169083151502179055507f9593d9bd30eff4872ec3bab10360ad82eaac80651801e68f47f0674c38415c3d8160405161019d9190610382565b60405180910390a150565b5f60015f8381526020019081526020015f205f9054906101000a900460ff169050919050565b6001602052805f5260405f205f915054906101000a900460ff1681565b5f8054906101000a900473ffffffffffffffffffffffffffffffffffffffff1681565b5f80fd5b5f819050919050565b61022481610212565b811461022e575f80fd5b50565b5f8135905061023f8161021b565b92915050565b5f6020828403121561025a5761025961020e565b5b5f61026784828501610231565b91505092915050565b5f8115159050919050565b61028481610270565b82525050565b5f60208201905061029d5f83018461027b565b92915050565b5f73ffffffffffffffffffffffffffffffffffffffff82169050919050565b5f6102cc826102a3565b9050919050565b6102dc816102c2565b82525050565b5f6020820190506102f55f8301846102d3565b92915050565b5f82825260208201905092915050565b7f566f7465722068617320616c726561647920766f7465640000000000000000005f82015250565b5f61033f6017836102fb565b915061034a8261030b565b602082019050919050565b5f6020820190508181035f83015261036c81610333565b9050919050565b61037c81610212565b82525050565b5f6020820190506103955f830184610373565b9291505056fea2646970667358221220eda132b720cc3714e57b11f86448a3790d39091bcf419ad2eddb5fc3fd84568664736f6c63430008150033",
  "immutableReferences": {},
  "source": "// SPDX-License-Identifier: MIT\r\npragma solidity ^0.8.0;\r\n\r\ncontract BiometricVoting {\r\n    address public admin;\r\n\r\n    mapping(uint => bool) public hasVoted;\r\n    event VoteCast(uint voterId);\r\n\r\n    constructor() {\r\n\r\n        admin = msg.sender;\r\n\r\n    }\r\n\r\n    function vote(uint voterId) public {\r\n        require(!hasVoted[voterId], \"Voter has already voted\");\r\n        hasVoted[voterId] = true;\r\n        emit VoteCast(voterId);\r\n    }\r\n\r\n    function checkVoted(uint voterId) public view returns (bool) {\r\n        return hasVoted[voterId];\r\n    }\r\n}",
  "sourcePath": "C:\\Users\\hitha\\OneDrive\\Desktop\\Project\\Major-Project\\smart-contract\\contracts\\BiometricVoting.sol",
  "compiler": {
    "name": "solc",
    "version": "0.8.21+commit.d9974bed.Emscripten.clang"
  },
  "schemaVersion": "3.4.16",
  "updatedAt": "2025-05-06T15:45:11.583Z",
  "networkType": "ethereum",
  "devdoc": {
    "kind": "dev",
    "methods": {},
    "version": 1
  },
  "userdoc": {
    "kind": "user",
    "methods": {},
    "version": 1
  }
}